{
  "_format": "hh-sol-artifact-1",
  "contractName": "Create2Factory",
  "sourceName": "contracts/Create2Factory.sol",
  "abi": [
    {
      "anonymous": false,
      "inputs": [
        {
          "indexed": false,
          "internalType": "address",
          "name": "createdContract",
          "type": "address"
        }
      ],
      "name": "Deployed",
      "type": "event"
    },
    {
      "inputs": [
        {
          "internalType": "bytes",
          "name": "bytecode",
          "type": "bytes"
        },
        {
          "internalType": "bytes32",
          "name": "salt",
          "type": "bytes32"
        }
      ],
      "name": "deploy",
      "outputs": [
        {
          "internalType": "address",
          "name": "",
          "type": "address"
        }
      ],
      "stateMutability": "nonpayable",
      "type": "function"
    }
  ],
  "bytecode": "0x608060405234801561001057600080fd5b5061041b806100206000396000f3fe608060405234801561001057600080fd5b506004361061002b5760003560e01c80634af63f0214610030575b600080fd5b61004a600480360381019061004591906102b0565b610060565b604051610057919061034d565b60405180910390f35b600080828451602086016000f59050600073ffffffffffffffffffffffffffffffffffffffff168173ffffffffffffffffffffffffffffffffffffffff1614156100df576040517f08c379a00000000000000000000000000000000000000000000000000000000081526004016100d6906103c5565b60405180910390fd5b7ff40fcec21964ffb566044d083b4073f29f7f7929110ea19e1b3ebe375d89055e8160405161010e919061034d565b60405180910390a18091505092915050565b6000604051905090565b600080fd5b600080fd5b600080fd5b600080fd5b6000601f19601f8301169050919050565b7f4e487b7100000000000000000000000000000000000000000000000000000000600052604160045260246000fd5b6101878261013e565b810181811067ffffffffffffffff821117156101a6576101a561014f565b5b80604052505050565b60006101b9610120565b90506101c5828261017e565b919050565b600067ffffffffffffffff8211156101e5576101e461014f565b5b6101ee8261013e565b9050602081019050919050565b82818337600083830152505050565b600061021d610218846101ca565b6101af565b90508281526020810184848401111561023957610238610139565b5b6102448482856101fb565b509392505050565b600082601f83011261026157610260610134565b5b813561027184826020860161020a565b91505092915050565b6000819050919050565b61028d8161027a565b811461029857600080fd5b50565b6000813590506102aa81610284565b92915050565b600080604083850312156102c7576102c661012a565b5b600083013567ffffffffffffffff8111156102e5576102e461012f565b5b6102f18582860161024c565b92505060206103028582860161029b565b9150509250929050565b600073ffffffffffffffffffffffffffffffffffffffff82169050919050565b60006103378261030c565b9050919050565b6103478161032c565b82525050565b6000602082019050610362600083018461033e565b92915050565b600082825260208201905092915050565b7f437265617465323a204661696c6564206f6e206465706c6f7900000000000000600082015250565b60006103af601983610368565b91506103ba82610379565b602082019050919050565b600060208201905081810360008301526103de816103a2565b905091905056fea264697066735822122011d7890744262760cbf986367a173a87eedcc06383676960578c708dc714f11c64736f6c634300080c0033",
  "linkReferences": {},
  "deployedLinkReferences": {}
}